:020000040800F2
:10000000580D002045010008B10B0008A90B00089D
:10001000AD0B000817020008E11400080000000002
:10002000000000000000000000000000F1110008C6
:100030003D09000800000000B9100008DD120008AA
:100040005F0100085F0100085F0100085F01000810
:100050005F0100085F0100085F0100085F01000800
:100060005F0100085F0100085F0100085F010008F0
:100070005F0100085F0100085F0100085F010008E0
:100080005F0100085F0100085F0100085F010008D0
:10009000A11400085F0100085F0100085F0100086B
:1000A0005F0100085F0100085F0100085F010008B0
:1000B0005F0100085F0100085F0100085F010008A0
:1000C0005F0100085F0100085F0100085F01000890
:1000D0005F010008411300085F0100085F0100088C
:1000E0005F0100085F0100085F0100085F01000870
:1000F0005F0100085F0100085F0100085F01000860
:100100005F0100085F0100085F0100085F0100084F
:100110005F0100085F0100085F0100085F0100083F
:100120005F0100085F0100085F0100085F0100082F
:10013000DFF80CD000F02EF800480047291700081F
:10014000580D00200648804706480047FEE7FEE7B6
:10015000FEE7FEE7FEE7FEE7FEE7FEE7FEE7FEE777
:10016000E11200083101000830B50B4601460020BD
:100170002022012409E021FA02F59D4205D303FA69
:1001800002F5491B04FA02F52844151EA2F10102EA
:10019000F1DC30BD064C074D06E0E06840F001039D
:1001A00094E8070098471034AC42F6D3FFF7C4FF39
:1001B000CC190008EC19000870B58D1810F8014B27
:1001C00014F0030201D110F8012B231106D110F80D
:1001D000013B03E010F8016B01F8016B521EF9D1ED
:1001E000ABB110F8012B04F00C048A1A0C2C03D0CC
:1001F000A2EB84129B1C08E010F8014BA2EB042236
:10020000F8E712F8014B01F8014B5B1EF9D5A94242
:10021000D4D3002070BD00BFFEE7000000B589B058
:100220000121092000F06AFF0121480600F046FF85
:100230004FF48070ADF8200048208DF8230008A905
:10024000384800F0BDFB4FF40070ADF820001820D6
:100250008DF8230008A9334800F0B2FB01214FF4C8
:10026000EA1000F039FC4FF4E06000F0DBFC002104
:100270004FF0006000F0E0FC012202212A4800F06B
:10028000F5F814208DF81C0000208DF81D000120C9
:100290008DF81E008DF81F0007A800F08BFC224887
:1002A00000F044F804A800F037FA00208DF816009A
:1002B0008DF817008DF818008DF819008DF81A00C8
:1002C0008DF81B008DF812008DF8130002208DF8B8
:1002D000140001208DF815000620ADF8100004A9C7
:1002E000114800F0CCF801208DF80A0000208DF8AC
:1002F0000B0001208DF80C000020ADF80000042058
:10030000ADF802000020ADF80400ADF80600ADF82D
:10031000080001208DF80D00684600F023F809B0B0
:1003200000BD0000000C01400064004010B5044610
:100330000B48844209D10121480600F0CFFE00217C
:100340004FF0007000F0CAFE08E00121880600F0BE
:10035000C5FE00214FF0806000F0C0FE10BD00001F
:100360000064004010B50021837A012202FA03F1F3
:100370003D4A126842F001023B4B1A603A4A1C3275
:1003800012688A43384B1C331A60027BCAB9364A5A
:100390000C3212688A43344B0C331A604288C3888B
:1003A00042EA0343304A4032847A42F834300288C9
:1003B000838842EA03432C4A4032847A02EBC40227
:1003C0005360027B012A19D1274A0C3212680A4372
:1003D000254B0C331A604288038842EA0343224AC1
:1003E0004032847A42F83430C288838842EA034338
:1003F0001D4A4032847A02EBC4025360C27A3AB991
:10040000194A121D12688A43174B1B1D1A6006E019
:10041000154A121D12680A43134B1B1D1A600289EC
:1004200032B9114A143212688A430F4B14331A60DE
:100430000289012A06D10C4A143212680A430A4B77
:1004400014331A60427B012A06D1074A1C32126813
:100450000A43054B1C331A60034A126822F001025A
:10046000014B1A6010BD0000006600401AB14369DC
:100470000B43436102E043698B434361704730B5EE
:10048000024600200023146824F00204146014685B
:1004900044F00104146000E05B1C546804F00104A3
:1004A0001CB94FF6FF74A342F6D1546804F001045E
:1004B0000CB900206CE08C79012C04D1146844F054
:1004C0008004146003E0146824F080041460CC7984
:1004D000012C04D1146844F04004146003E0146853
:1004E00024F0400414600C7A012C04D1146844F008
:1004F0002004146003E0146824F0200414604C7A93
:10050000012C04D1146844F01004146003E0146852
:1005100024F0100414608C7A012C04D1146844F087
:100520000804146003E0146824F008041460CC7A12
:10053000012C04D1146844F00404146003E014682E
:1005400024F0040414608C78A407CD7844EA056490
:100550000D7944EA05444D7944EA05540D886D1E31
:100560002C43D461146824F001041460002300E0DB
:100570005B1C546804F001041CB14FF6FF74A342E5
:10058000F6D1546804F001040CB1002000E0012011
:1005900030BD0246002019B9D36803F0030006E01D
:1005A000012903D1136903F0030000E00020704724
:1005B00010B500F5D87303EB01131B6803F00403B7
:1005C0001372137A53B900F5D87303EB01131B6848
:1005D00040F2FF7404EA5353136009E000F5D87346
:1005E00003EB01131B686FF0604404EAD30353600C
:1005F00000F5D87303EB01131B6803F00203537279
:1006000000F5D87303EB01135B6803F00F039372DB
:1006100000F5D87303EB01135B681B0AD37400F574
:10062000D87303EB01139B68D37200F5D87303EB07
:1006300001139B681C0A147300F5D87303EB0113B4
:100640009B681C0C547300F5D87303EB01139B6873
:100650001B0E937300F5D87303EB0113DB68D373A0
:1006600000F5D87303EB0113DB681C0A147400F562
:10067000D87303EB0113DB681C0C547400F5D873BA
:1006800003EB0113DB681B0E937421B9C36843F0BD
:100690002003C36003E0036943F02003036110BD3E
:1006A0002DE9F04186B0074688461546002401979B
:1006B000002002908DF80C008DF80D008DF80E5082
:1006C00000BF06E018F804100DF10F000155601C82
:1006D00084B2AC42F6DB01A90E4800F02DF80646C4
:1006E000002401E0601C84B231460A4800F0B8F8EA
:1006F00018B940F6FF708442F4DB462000F03CF964
:1007000040F6FF70844203DB002006B0BDE8F081B4
:100710000120FAE70064004000218171C17101727B
:1007200041728172C1728170C17003210171022115
:10073000417101210180704710B502460020936885
:1007400003F08063B3F1806F00D110E0936803F091
:100750000063B3F1006F01D1012008E0936803F05A
:100760008053B3F1805F01D1022000E0042004280F
:1007700074D002F5C07303EB00131B6803F001048F
:1007800002F5C07303EB00131C600B7A7BB94B7A44
:100790000C8843EA445302F5C07404EB0014246847
:1007A000234302F5C07404EB0014236010E00B7ABD
:1007B0004C6843EAC4034C7A234302F5C07404EB4B
:1007C00000142468234302F5C07404EB0014236072
:1007D0008B7A03F00F038B7202F5C07303EB0013E7
:1007E0005B6823F00F0402F5C07303EB00135C6039
:1007F00002F5C07303EB00135B688C7A234302F5A8
:10080000C07404EB001463608B7B1C064B7B44EAD2
:1008100003440B7B44EA0323CC7A234302F5C074E0
:1008200004EB0014A3608B7C1C064B7C44EA03445D
:100830000B7C44EA0323CC7B234302F5C07404EB16
:100840000014E36002F5C07303EB00131B6843F070
:10085000010402F5C07303EB00131C6010BD00001F
:1008600010B50246002321B1012907D002290FD17A
:1008700009E090681D4C00EA04030BE090681C4CF2
:1008800000EA040306E090681A4C00EA040301E061
:10089000002300BF00BF184C181BA34216D007DC72
:1008A00083B16FF08060184470B1022818D111E054
:1008B000B0F5007F10D0114C204448B1B0F5003F96
:1008C0000ED10BE002230DE000230BE0002309E032
:1008D000002307E0012305E0012303E0012301E0F9
:1008E000002300BF00BFD8B210BD00000300000409
:1008F0000003000800000310000100080001FFF7DA
:1009000030B585B0054600210B48FFF742FE10B90F
:10091000002005B030BD6A4600210748FFF748FEB9
:10092000002404E00DF10B00005D2855641C082C28
:10093000F8D39DF80A00ECE700640040704700001F
:100940004FF0E020006920F004004FF0E021086142
:100950000920074908800846008800EB4001C1EBE8
:10096000C0104FF6FF7101EAC000024908807047CD
:1009700014000020160000200146B1F5E16F01DDF2
:100980004FF4E1610D4A12884A434FF0E0235A6167
:1009900000229A6101221A6100BF4FF0E022106923
:1009A00000F001021AB100F48032002AF5D00022D2
:1009B0004FF0E0231A619A61704700001600002092
:1009C0002DE9F041024600250026002000230024E6
:1009D000002791F803C00CF00F0591F803C00CF04C
:1009E000100CBCF1000F03D091F802C04CEA0505D1
:1009F00091F800C0BCF1000F31D0146800202BE04A
:100A00004FF0010C0CFA00F3B1F800C00CEA030639
:100A10009E4220D183004FF00F0C0CFA03F7BC4329
:100A200005FA03FC4CEA040491F803C0BCF1280F5A
:100A300006D14FF0010C0CFA00FCC2F814C00AE019
:100A400091F803C0BCF1480F05D14FF0010C0CFA2E
:100A500000FCC2F810C0401C0828D1D31460B1F8C3
:100A600000C0BCF1FF0F34DD546800202EE000F11F
:100A7000080C4FF0010808FA0CF3B1F800C00CEABA
:100A800003069E4221D183004FF00F0C0CFA03F7AE
:100A9000BC4305FA03FC4CEA040491F803C0BCF122
:100AA000280F05D100F1080C08FA0CF8C2F81480E0
:100AB00091F803C0BCF1480F07D100F1080C4FF0CA
:100AC000010808FA0CF8C2F81080401C0828CED3A0
:100AD0005460BDE8F0810000F0B50A460023002410
:100AE0000021002500F00046B6F1004F02D11D4E56
:100AF000F16901E01B4E7168C0F3034583B200F455
:100B00004016B6F5401F08D121F07061154E766889
:100B100026F07066134F7E6012E000F48016B6F582
:100B2000801F06D1032606FA05F4A14341F0706147
:100B300006E0460D360103FA06F6B14341F0706156
:100B400022B1460D360103FA06F6314300F00046A5
:100B5000B6F1004F02D1034EF16101E0014E716028
:100B6000F0BD000000000140416170470161704725
:100B700008B50121082000F0C1FA4FF48060ADF8FB
:100B8000000010208DF8030003208DF80200694654
:100B90000448FFF715FF4FF480610248FFF7E6FFB6
:100BA00008BD0000000C014000BFFEE700BFFEE7EB
:100BB0007047000070B5002100230F22C47804B3F1
:100BC000154C246804F4E064C4F5E064210AC1F122
:100BD0000403CA40447804FA03F1847814402143A2
:100BE00009010E4C0678A155047804F01F05012474
:100BF000AC4005786D11AD0005F1E025C5F8004168
:100C000009E0047804F01F050124AC40044D067887
:100C1000761145F8264070BD0CED00E000E400E0E0
:100C200080E100E002490143024A11607047000080
:100C30000000FA050CED00E0024A0A400243024BB4
:100C40001A60704780FFFF1F08ED00E007E040F2E8
:100C5000375100BF0A1EA1F10101FBD1401E00283F
:100C6000F5D170472DE9F04105460F4616460024A0
:100C7000C5EBC501C8B2394600F018F900BF0BE05A
:100C8000A6F1200101EB4101054A02EB4101085D9B
:100C900000F050F9601CC4B2062CF1DBBDE8F08115
:100CA000A417000870B5002415E004F1B001C8B223
:100CB00000F00EF9012000F00BF9102000F008F907
:100CC000002504E0002000F035F9681CC5B2802D35
:100CD000F8DB601CC4B2082CE7DB70BD2DE9F041E5
:100CE0000746884614460025002607EB47014906BB
:100CF000080E414600F0DAF811E000250BE0A15D96
:100D0000203901EB4101084A02EB4101485D00F046
:100D100011F9681CC5B2062DF1DB701CC6B2A05DCE
:100D20000028EAD1BDE8F081A417000800B58FB013
:100D300025A000680E9025A103C9CDE90C0125A1CD
:100D400003C9CDE90A0125A103C9CDE9080125A1FF
:100D500003C9CDE9060125A103C9CDE9040125A0F8
:100D60000068039024A103C9CDE901010EAA002166
:100D70000820FFF7B3FF762200210E20FFF772FF55
:100D80000CAA02210846FFF7A9FF0AAA02210C209B
:100D9000FFF7A4FF08AA04210220FFF79FFF06AA7D
:100DA00004210C20FFF79AFF04AA07210020FFF777
:100DB00095FF01AA07210F20FFF790FF042000F004
:100DC0001FF80FB000BD000047687A00543A202099
:100DD00025000000503A202025000000593A20202C
:100DE00025000000523A20202500000050574D3ABF
:100DF00000000000487A00004F7074696F6E0000B8
:100E00002DE9FC410546002725A00068019025A09A
:100E10000068009001AA00210846FFF75FFF042D3B
:100E200000DB0C25032D00D10B25022D00D1092557
:100E3000012D1CDC002412E02146002000F036F8D1
:100E4000002608E039467A1CD7B2174A505C00F0F9
:100E500071F8701CC6B2072EF4DB601CC4B2012C02
:100E6000EADB6A4600210120FFF738FF16E0002484
:100E700012E02146002000F019F8002608E039466B
:100E80007A1CD7B2084A505C00F054F8701CC6B205
:100E9000AE42F4DB601CC4B2012CEADBBDE8FC818D
:100EA0002020000078000000D808002070B504461B
:100EB0000D4605F1B001C8B200F00AF8102141EA70
:100EC000141000F005F804F00F0000F001F870BDF8
:100ED00070B50446082529021448FFF745FEA9020B
:100EE0001348FFF741FE00BF1AE004F0800028B16C
:100EF0004FF400410E48FFF739FE04E04FF4004183
:100F00000B48FFF731FE4FF400510948FFF72EFE62
:100F100000BF4FF400510648FFF726FE6006040E9E
:100F2000281EA5F10101CDB2DFD170BD000801403E
:100F3000000C014070B50446082529021548FFF74A
:100F400015FE00BF4FF400511348FFF70DFE00BF20
:100F50001AE004F0800028B14FF400410E48FFF77A
:100F600005FE04E04FF400410B48FFF7FDFD4FF490
:100F700000510948FFF7FAFD00BF4FF40051064841
:100F8000FFF7F2FD6006040E281EA5F10101CDB2A7
:100F9000DFD170BD00080140000C014008B50121FF
:100FA000082000F0ABF80121042000F0A7F84FF46E
:100FB0002040ADF8000003208DF8020010208DF8CD
:100FC000030069463A48FFF7FBFC4FF4C050ADF808
:100FD000000003208DF8020010208DF80300694600
:100FE0003448FFF7EDFC4FF400513148FFF7BEFDE8
:100FF0004FF480512F48FFF7B7FD3220FFF726FE50
:101000004FF480512B48FFF7B1FDAE20FFF760FF92
:10101000D520FFF75DFF8020FFF75AFFA820FFF7DC
:1010200057FF3F20FFF754FFD320FFF751FF002069
:10103000FFF74EFF4020FFF74BFF8D20FFF748FFE3
:101040001420FFF745FF2020FFF742FF0220FFF7A3
:101050003FFFA120FFF73CFFC820FFF739FFDA2050
:10106000FFF736FF1220FFF733FF8120FFF730FF35
:10107000CF20FFF72DFFD920FFF72AFFF120FFF740
:1010800027FFDB20FFF724FF4020FFF721FFA420EC
:10109000FFF71EFFA620FFF71BFFAF20FFF718FF8B
:1010A000FFF700FE00210846FFF700FF08BD000023
:1010B000000C0140000801407047000029B1064AB9
:1010C000D2690243044BDA6104E0034AD2698243E5
:1010D000014BDA61704700000010024029B1064A56
:1010E00012690243044B1A6104E0034A1269824305
:1010F000014B1A61704700000010024029B1064AF6
:1011000092690243044B9A6104E0034A9269824364
:10111000014B9A61704700000010024030B5002179
:101120000022002400232D4D6D6805F00C0121B133
:10113000042905D0082923D105E0294D056022E0C6
:10114000274D05601FE0254D6D6805F47012234D95
:101150006D6805F48034022505EB92421CB9214DDF
:10116000554305600BE01D4D6D6805F400351DB15C
:101170001C4D5543056002E0194D5543056002E0E2
:10118000174D056000BF00BF144D6D6805F0F001FC
:101190000909154D6B5C0568DD4045600F4D6D68B4
:1011A00005F4E061090A104D6B5C4568DD4085601F
:1011B0000A4D6D6805F46051C90A0B4D6B5C4568BA
:1011C000DD40C560054D6D6805F44041890B074D54
:1011D0006B5CC568B5FBF3F5056130BD00100240DE
:1011E00000127A0000093D000000002010000020DD
:1011F000704710B500F002F810BD00000CB50020DB
:10120000019000903348006840F480303149086014
:1012100000BF3048006800F4003000900198401C86
:101220000190009818B90198B0F5A06FF1D1294844
:10123000006800F4003010B10120009001E00020AF
:1012400000900098012843D12348006840F0100026
:10125000214908600846006820F00300086008463D
:10126000006840F0020008601A4840681949486068
:101270000846406848600846406840F4806048601E
:101280000846406820F47C1048600846406840F4F6
:10129000E81048600846006840F08070086000BFB1
:1012A0000C48006800F000700028F9D00948406838
:1012B00020F00300074948600846406840F00200FB
:1012C000486000BF0348406800F00C000828F9D1CE
:1012D0000CBD0000001002400020024070470000DA
:1012E00010B51348006840F0010011490860084635
:1012F0004068104908400E494860084600680E4999
:1013000008400B4908600846006820F48020086007
:101310000846406820F4FE0048604FF41F008860D3
:10132000FFF767FF4FF000600449086010BD000040
:10133000001002400000FFF8FFFFF6FE08ED00E09D
:10134000704721B1828942F40052828104E082898F
:101350004DF6FF731A408281704702460020B1F5B6
:10136000007F00D100BF13880B400BB1012000E0CB
:1013700000207047F0B50346002400260025002019
:1013800040F66A17B94200D100BF1846C1F34214B3
:1013900001F01F06012707FA06F5012C01D10C30D8
:1013A00004E0022C01D1103000E014301AB10768BB
:1013B0002F43076002E00768AF430760F0BD0000FD
:1013C0002DE9F04786B005460E460024A24600BF30
:1013D000A1460027B08900B100BF2F462C8A4CF6E9
:1013E000FF700440F08804432C82AC894EF6F31061
:1013F0000440B08831890843718908430443AC81B3
:10140000AC8A4FF6FF400440B0890443AC8201A887
:10141000FFF784FE1F48874202D1DDF810A001E0EB
:10142000DDF80CA0A88900F4004040B10AEBCA0026
:1014300000EB0A1031684900B0FBF1F807E00AEB55
:10144000CA0000EB0A1031688900B0FBF1F8642093
:10145000B8FBF0F004012009642101FB1089A88980
:1014600000F4004040B1322000EBC900B0FBF1F0C5
:1014700000F00700044308E0322000EB091064216B
:10148000B0FBF1F000F00F0004432C8106B0BDE882
:10149000F087000000380140C1F3080282807047E5
:1014A00010B586B0002401AA00210848FFF780F893
:1014B00000BF07E00DF10F00025D214604A000F01F
:1014C00057F8641C082CF5DB06B010BD0064004022
:1014D00072786275665B25645D3A25640D0A0000CA
:1014E00000BFFEE700B585B04FF4E1300190002069
:1014F000ADF80800ADF80A00ADF80C00ADF810002A
:101500000C20ADF80E00012144F20900FFF7F6FDB2
:1015100001210420FFF7E0FA18208DF80300402095
:10152000ADF8000003208DF8020069460E48FFF771
:1015300047FA04208DF803008020ADF800006946CA
:101540000948FFF73DFA01A90848FFF739FF0121D3
:101550000648FFF7F6FE012240F225510348FFF747
:1015600009FF05B000BD0000000C0140003801403B
:101570000FB4054B10B503A9044A029800F018F8FF
:1015800010BC5DF814FB000005170008500900208E
:1015900002E008C8121F08C1002AFAD1704770473C
:1015A000002001E001C1121F002AFBD1704700009A
:1015B0002DE9FF4F89B09B460446002506E025280B
:1015C0000BD05A460B999047641C6D1C207800285C
:1015D000F5D10DB02846BDE8F08F0027B8460122AE
:1015E000474900E0074314F8013F203B02FA03F0AB
:1015F0000842F7D120782E2819D114F8010F47F0AE
:1016000004072A280ED06FF02F022078A0F13001B5
:1016100009290CD808EB880102EB410100EB010815
:10162000641CF2E70A98641C50F8048B0A90207836
:101630000028CED0642808D0692806D075281ED08E
:101640005A460B9990476D1C58E00A994FF00A09C9
:1016500001C90A91002802DA40422D2102E0390531
:1016600004D52B218DF82010012103E0F90704D0C7
:101670002021F7E78A4608AE0DE00021FAE70A9933
:101680004FF00A0901C90A91F7E74946FEF76CFDD8
:10169000303106F8011D0028F7D1ADEB060000F14E
:1016A0002009780701D44FF00108C84502DDA8EBF6
:1016B000090000E000208046002706E008A85A46FE
:1016C000C05D0B9990476D1C7F1C5745F6DB04E00D
:1016D00030205A460B9990476D1CB8F10001A8F1D3
:1016E0000108F5DC05E016F8010B5A460B99904706
:1016F0006D1CB9F10001A9F10109F4DC641C65E776
:101700000928010070B504460D46E1B20548FFF70F
:10171000C3FE00BF40210348FFF71FFE0028F9D099
:10172000204670BD003801401CB5FFF709F9FFF7EE
:101730001FFAFFF7D7FEFFF731FCFFF7F7FAFEF7C6
:101740006DFD24E0082269461220FEF7A9FF054638
:101750002DB10FA207210020FFF7C0FA04E00EA26E
:101760000B210020FFF7BAFA6846FFF7C9F80446D4
:1017700054B1002606E06A4607210F20FFF7AEFAB3
:10178000701CC6B2A642F6DB0A20FFF7F5F8D9E7CF
:101790004661696C656400007375636365737366A5
:1017A000756C00000000000000000000002F000029
:1017B00000000700070000147F147F1400242A7F14
:1017C0002A12006264081323003649552250000093
:1017D0000503000000001C224100000041221C0003
:1017E0000014083E08140008083E0808000000A085
:1017F0006000080808080808000060600000002079
:1018000010080402003E5149453E0000427F40005E
:10181000004261514946002141454B3100181412E4
:101820007F10002745454539003C4A4949300001B1
:101830007109050300364949493600064949291E00
:10184000000036360000000056360000081C2A4909
:1018500008080014141414140808492A1C0800026B
:101860000151090600324959513E007C1211127C87
:10187000007F49494936003E41414122007F4141B4
:10188000221C007F49494941007F09090901003EA6
:101890004149497A007F0808087F0000417F4100E4
:1018A000002040413F01007F08142241007F40405A
:1018B0004040007F020C027F007F0408107F003E42
:1018C0004141413E007F09090906003E4151215E28
:1018D000007F091929460046494949310001017F25
:1018E0000101003F4040403F001F2040201F003FBB
:1018F0004038403F0063140814630007087008076D
:1019000000615149454300007F41410000552A557F
:101910002A55000041417F000402FF02040080803C
:10192000808080800000010204000020545454781C
:10193000007F48444438003844444420003844443C
:10194000487F00385454541800087E0901020018DA
:10195000A4A4A47C007F080404780000447D400017
:10196000004080847D00007F102844000000417FFB
:101970004000007C04180478007C080404780038D7
:101980004444443800FC242424180018242418FC5F
:10199000007C0804040800485454542000043F44C8
:1019A0004020003C4040207C001C2040201C003C8B
:1019B0004030403C004428102844001CA0A0A07CDB
:1019C000004464544C44141414141414EC19000806
:1019D0000000002054090000B8010008181E00088B
:1019E0005409002004040000A01500081200012082
:1019F0000501020304042009060708090204060879
:101A000014000F11000022322AA6A26221110981BE
:101A1000010001000E104222130B42827E02020AD4
:101A20001223461FF0102030AC63300088C8A899FC
:101A30008E88A8C8883F00101122672212128040A9
:101A4000300F00003F40407161137C400122FF05D0
:101A50000316FC001F000415407F4021000F1104F5
:101A60008484FC848400FE0202F20202FEA0F00FD5
:101A700060201F109040231806017E8083E0DF3035
:101A80000A4030EF246448487F4804F2406020094F
:101A900001017F211100FF49010611FF1F200940AC
:101AA00042CC0000809E920103129E80C1100C7FE8
:101AB0002094844424140F142444A90111411007D4
:101AC0004242C27E42C2070210407F34080080407A
:101AD00020100C033D04041040407080100710607B
:101AE000028C00100122FF05051120040F13047E53
:101AF0000141E151494543415161C101C014061002
:101B000000FE485083040414504800C0080B130022
:101B10007F4442417F4142444000080C1420182079
:101B200024A4243FA424A46000000B1012888A4C33
:101B300029180F1828C8E0100A60F80704E42424C4
:101B400024FF040711E40440040D12FF00808145C6
:101B500029112F414181816113FE220141050111AB
:101B60001E100580601F02010807127F02024282D8
:101B70007FE0040E102020A86C2A3928A82A6CA81F
:101B8000202040F01002828190924A494524221080
:101B9000080102027E14049052347BF00A34528011
:101BA000708F0808F808201408829A566322528E13
:101BB000C8000510330C3340C0040E11101014D4AB
:101BC000545454FC525252D312C110094040505741
:101BD0005555557F040B1257502110081715D55530
:101BE00057557D04080411D515175F1D3C03425558
:101BF000012D440301116019C104091240A09E8205
:101C000082829EA0011DB803000B10908840432CD7
:101C10001028464180C00C0F100484E45C44C420AA
:101C200010E82724E4342C6003140702017F10100D
:101C30003F8604061009093F4989821004100C44AC
:101C4000012345C6060C041244140C0003131E2085
:101C5000C431200116C01B00FC800C05122222A3F7
:101C600062A103180B201F2058475048454245E504
:101C70000912401D3B0419A30D143F043DC0031B72
:101C800020279C080412272020402C04407C403848
:101C9000042005F2121AD644091020080E118E40B5
:101CA0004F201E804F20180710204FC00C0E10141C
:101CB000A4442434AD6624940444A414E003100C1A
:101CC00008090808090909FD09090B090910600C30
:101CD0000D121010D0FF9014E4AFA4A4A4AF3F03E2
:101CE0001F04034103080A12894B2A1A0E1A2A4BB1
:101CF00088802290013D40040C0413111610410508
:101D00002E3F5A04080711030C102040F81F5F3CB7
:101D100024BE030F12243C600315F911C032FF06E4
:101D20000E121F200563FC04010616FC8051010DF4
:101D300013C0032D4104000911003E2222E2222299
:101D40003E7F1DF2040C0C10FF2011090503FF0358
:101D5000050911E1031A04C1231C07C3040510A4DB
:101D6000642404411F020181043D3D042D47040AFF
:101D70001502801D2006080615C949497F80800C80
:101D80000B4F405F484440414245584000070D3FDB
:101D900080041B0C04DD332526FE0D11800331F673
:101DA00061FE0511003D80063EFEFF060C04149204
:101DB00092FE80060C0C1100FE884848007E908838
:101DC00088E4A0040C0C122020504844434448509E
:101DD0002020E0041DE1054242010D149F03801202
:101DE000060AFE0AC600E000F000F87848FE82BA53
:101DF000BA0323FE00121DDA040110127115A1129C
:101E00004115D11211153009FE00E0E0E0FEFEE0C0
:081E10000113F0F008418A0003
:0400000508000131BD
:00000001FF
